:040000006F20D02E6F
:10000400000000000000000038250000D625000094
:1000140000000000EA2A00000000000000000000C8
:10002400EA2A0000EA2A00000000000000000000A4
:10003400EA2A000000000000EA2A00000000000094
:10004400EA2A000048250000EA2A0000EA2A000003
:10005400EA2A0000EA2A0000EA2A0000EA2A00004C
:10006400EA2A0000EA2A0000EA2A000084210000AB
:10007400EA2A0000EA2A0000EA2A0000EA2A00002C
:10008400EA2A0000EA2A0000EA2A0000EA2A00001C
:10009400EA2A0000EA2A0000EA2A0000EA2A00000C
:1000A400EA2A0000EA2A0000EA2A0000EA2A0000FC
:1000B40098250000EA2A0000EA2A0000EA2A000043
:1000C400EA2A0000EA2A0000EA2A0000EA2A0000DC
:1000D400EA2A0000EA2A0000EA2A0000EA2A0000CC
:1000E400EA2A0000EA2A0000EA2A0000EA2A0000BC
:1000F400EA2A0000EA2A0000EA2A0000EA2A0000AC
:1001040000000000EA2A0000EA2A0000EA2A0000AF
:10011400EA2A0000EA2A0000EA2A0000EA2A00008B
:10012400EA2A0000EA2A0000EA2A0000EA2A00007B
:10013400EA2A0000EA2A0000EA2A0000EA2A00006B
:10014400EA2A0000EA2A0000EA2A0000EA2A00005B
:10015400EA2A00009A080000EA2A0000EA2A0000BD
:10016400EA2A0000EA2A0000EA2A0000EA2A00003B
:10017400EA2A0000EA2A0000EA2A0000EA2A00002B
:10018400EA2A0000EA2A0000EA2A0000EA2A00001B
:10019400EA2A0000EA2A0000EA2A0000EA2A00000B
:1001A400000000000000000000000000000000004B
:0C01B4000000000000000000000000003F
:1001C0003D432A876373C3029377F700BDEFADE524
:1001D000937606FF3D8ABA960CC34CC30CC74CC736
:1001E0004107E36BD7FE11E28280B306C3408A0663
:1001F0009702000096966780A6002307B700A30623
:10020000B7002306B700A305B7002305B700A30472
:10021000B7002304B700A303B7002303B700A3026A
:10022000B7002302B700A301B7002301B700A30062
:10023000B7002300B700828093F5F50F93968500F1
:10024000D58D93960501D58D61B7939627009702BA
:10025000000096968682E78086FA9680C1171D8FE9
:100260003E96E374C3F8A5B7797106D622D4001878
:10027000AA87232CB4FCA30FF4FC9387818B23263D
:10028000F4FE8327C4FE9387E7031D46832584FD80
:100290003E85EF4050320100B250225445618280C9
:1002A000011106CE22CC0010B7F7FF1F9387877E7F
:1002B0009C432324F4FED1472326F4FE25A883275C
:1002C00084FE93F7F70F3E85EF40902AAA87BE86FB
:1002D000B7070020138707098327C4FEBA9794A3A2
:1002E000832784FE91832324F4FE8327C4FEF91719
:1002F0002326F4FE0327C4FE9547E3C2E7FC010072
:10030000F240624405618280411122C60008B707AD
:10031000002093878703DC3393F7F70713F7F70F72
:10032000B707002093878703D8B393878181DA23A7
:10033000930700106312F704B73702409387074012
:10034000FC2313F7F70FB737024093870740719BE1
:100350001377F70FF8A3B737024093870740FC23C2
:1003600013F7F70FB737024093870740136727004B
:100370001377F70FF8A381AC93878181DA23930772
:1003800000206312F704B737024093870740FC232D
:1003900013F7F70FB737024093870740719B137726
:1003A000F70FF8A3B737024093870740FC2313F7F2
:1003B000F70FB7370240938707401367370013776B
:1003C000F70FF8A309A493878181DA2393070030FC
:1003D000631EF702B737024093870740FC2313F7E9
:1003E000F70FB737024093870740719B1377F70FDA
:1003F000F8A3B737024013870740B7370240938707
:10040000074078231377F70FF8A375AA93878181A4
:10041000DA23930700406318F71AB737024093872F
:100420000740FC2313F7F70FB737024093870740C5
:10043000719B1377F70FF8A3B737024093870740F4
:10044000FC2313F7F70FB737024093870740136772
:1004500017001377F70FF8A3B737024093870740C9
:100460009C2313F7F70FB7370240938707401367B2
:1004700007F81377F70F98A3B73702409387074021
:10048000982B018B1367870098AB983B018B98BB27
:10049000B82B018B13674700B8ABB83B018BB8BBD7
:1004A000B737024093870740D82B1377F70FD43B19
:1004B00093F6F60FA206558FF42B93F6F60FC206AD
:1004C000558FFC3B93F7F70FE207D98F3E87B7377D
:1004D0000240938707401367F70F9375F70FD42BEC
:1004E000818A3686AE86D18ED4AB9356870093F53B
:1004F000F60FD43B818A3686AE86D18ED4BB935616
:10050000070193F5F60FF42B818A3686AE86D18EDD
:10051000F4AB13568701F83B018BBA863287558FAF
:10052000F8BBB7370240938707403707002013070F
:1005300007009375F70F83C64706818A3686AE8615
:10054000D18E2382D7069356870093F5F60F83C684
:100550005706818A3686AE86D18EA382D7069356F9
:10056000070193F5F60F83C66706818A3686AE8645
:10057000D18E2383D7061356870103C77706018BD5
:10058000BA863287558FA383E706B7370240938731
:10059000074003C7470E018B136757032382E70EFB
:1005A00003C7570E018BA382E70EB737024093872C
:1005B0000740130700FD2380E70EB73702409387FB
:1005C00007400947B8A70100324441018280411128
:1005D00006C622C400080545EF30505A0145EF30E9
:1005E000704E0545EF30504A0545EF3070510545D6
:1005F000EF30D0548545856713850780EF30F032A2
:100600000100B240224441018280411122C600080B
:10061000B73702409387074037070600190798CB82
:10062000B73702409387074013070004239CE7086D
:10063000B73702409387074013070004239EE7085B
:10064000B737024093870740130700202390E70A3B
:10065000B737024093870740370700201307071674
:10066000D8CFB7370240938707401387818798D345
:10067000B7370240938707403707002013078722C8
:10068000D8D3B73702409387074013870130B8D3D8
:10069000B737024093870740239C070CB7370240C7
:1006A000938707400947238DE70CB73702409387AC
:1006B0000740A38D070CB737024093870740239E5E
:1006C000070CB7370240938707400947238FE70C91
:1006D000B737024093870740A38F070CB737024014
:1006E000938707402390070EB73702409387074050
:1006F00009472381E70EB737024093870740A3815C
:10070000070E0100324441018280797106D622D45D
:100710000018232EA4FC8327C4FDC5C7B7370240A9
:1007200093870740194798A32945EF40A0378D3E8E
:10073000B7370240938707409C2313F7F70FB7376B
:100740000240938707406D9B1377F70F98A3B73745
:10075000024093870740414798B3B73702409387D9
:1007600007401307900298A3B737024093870740CA
:1007700013077002B8A3513DB73702409387074073
:100780009C2313F7F70FB73702409387074013678F
:1007900007011377F70F98A3930750052326F4FE5C
:1007A0008327C4FEFD8B0547B316F70037E700E04B
:1007B0008327C4FE9583938707048A07BA9794C357
:1007C000A1A0B737024093870740194798A329454E
:1007D000EF40402DB7370240938707402380070042
:1007E000930750052324F4FE832784FEFD8B0547E1
:1007F000B316F70037E700E0832784FE95839387DD
:1008000007068A07BA9794C30100B2502254456183
:100810008280797122D60018AA872E87A30FF4FC54
:10082000BA87231EF4FC8357C4FDA307F4FE835745
:10083000C4FDA183C207C1832307F4FEB7070020CC
:10084000938747040347F4FD98B3B70700209387C5
:1008500047040347F4FEA380E704B707002093870B
:1008600047040347E4FE2381E704B707002093878A
:1008700047040347F4FE2384E704B7070020938767
:1008800047040347E4FEA384E704B70700209387E7
:1008900047043E85325445618280011122CE00100A
:1008A000B737024093870740BC27A305F4FEB7374C
:1008B000024093870740BC372305F4FE8347B4FE0C
:1008C000898B638907448347A4FE93F70703414755
:1008D0006389E742130700026385E700638F0724FB
:1008E00015A18347A4FE93F7F7031307100263854E
:1008F000E71E13072002638EE71013070002639AB6
:10090000E72293878181FE2381EBB73702409387EB
:1009100007402147A38DE70C83C7818193F7070622
:10092000F1EF938781819C3315476387E70A194765
:10093000639FE70A93878181FE2393960701C18213
:10094000130700046374D700930700042316F4FE12
:10095000B7070020938787039C470357C4FE3A8656
:10096000BE85B707002013850716EF40C044938764
:100970008181FA238357C4FEB307F7401397070119
:10098000418393878181FAA3B70700209387870368
:1009900098478357C4FE3E97B70700209387870385
:1009A00098C7B7370240938707400357C4FE239C7C
:1009B000E70CB73702409387074083C7A70D13F7AB
:1009C000F70FB73702409387074013478700137725
:1009D000F70F238DE70C1DA0B73702409387074020
:1009E00037070020130787031833B8B301A8B737B8
:1009F000024093870740239C070C0100B7070020A3
:100A000093878703DC33E207E18763D60712ED386B
:100A10001DA2B73702409387074083C7270E93F77D
:100A2000F70FE207E187F19BE207E18793E72700F1
:100A3000139787016187B737024093870740137781
:100A4000F70F2381E70EB73702409387074083C72C
:100A5000270E13F7F70FB737024093870740134766
:100A600087001377F70F2381E70E9387818B03C7E6
:100A7000C7038947631DF704B737024093870740D0
:100A80002390070EB73702409387074083C7270E8E
:100A900013F7F70FB737024093870740719B13771F
:100AA000F70F2381E70EB737024013870740B737A8
:100AB0000240938707400347270E1377F70F2381E0
:100AC000E70E9387818B0547238EE702B5A09387B6
:100AD000818B238E07028DA0B73702409387074092
:100AE00083C7E70D93F7F70FE207E187F19BE20772
:100AF000E18793E72700139787016187B7370240A3
:100B0000938707401377F70F238FE70CB73702401F
:100B10009387074083C7E70D13F7F70FB7370240F6
:100B200093870740134787001377F70F238FE70C4E
:100B300021A00100C1AA0100F1A28347A4FE93F7FE
:100B4000F70389C709476385E70A65A2B7370240FB
:100B500093870740D8271377F70FDC3793F7F70F02
:100B6000A207D98F2316F4FE8347A4FE93F7070448
:100B70006385071883C7818193F70706B9C79387F1
:100B80008181239307009387818198339307000223
:100B9000631DF7029387818B370700208355071663
:100BA00093060716B22293060716D622EEBF2390AD
:100BB000C7042391D7041307071678232382E70479
:100BC0009387818B0547A38EE70293878181FE235C
:100BD00063950712B737024093870740239C070CA1
:100BE000B7370240938707402147238DE70C31A296
:100BF000B73702409387074083C7370E13F7F70FC5
:100C0000B737024093870740134787001377F70FE2
:100C1000A381E70EB7370240938707401387818B84
:100C20001A333A86DE27139707014183930706019B
:100C30009386818B8607B697FAA39387818B9A3325
:100C40008D4763F7E7009387818B2390070219A8EC
:100C50009387818B9E338507139707014183938781
:100C6000818B9AB39387818BDC47BE869387818B78
:100C70009E33A6073E87B7370240938707403697D3
:100C8000D8D39387818BDE33850713970701418380
:100C90009387818BDAB39387818BDA33914763F043
:100CA000E706B73702409387074083C7370E13F72D
:100CB000F70FB737024093870740719B1377F70F01
:100CC000A381E70EB73702409387074083C7370EEB
:100CD00013F7F70FB73702409387074013672700D2
:100CE0001377F70FA381E70E9387818B0547F8AF42
:100CF00039A0FD57A307F4FE21A0010021A00100A7
:100D000011A00100B7370240938707400947B8A7F1
:100D10006F0030188347B4FE93F70702E383070A96
:100D2000B7370240938707402947238DE70CB73731
:100D30000240938707402947A38DE70CB70700209F
:100D4000938707169823238CE180B70700209387A9
:100D5000071698339387818198B3B707002093874C
:100D60000716B823BC33A207D98F13970701418315
:100D700093878181BAA3B707002093870716D823EA
:100D8000DC33A207D98F13970701418393878181B1
:100D9000DAA3B707002093870716F823FC33A207CE
:100DA000D98F13970701418393878181FAA3231673
:100DB00004FEA30704FE83C7818193F707066381BE
:100DC000071083C7818193F70702D1C79387818179
:100DD0009C33130710026384E70213071002634772
:100DE000F700130700026387E7028DA013072002B4
:100DF000638FE702130730026388E70681A8B7070D
:100E00000020938787031387618F98C79D47231618
:100E1000F4FEA1A893878181DE2313F7F70FB707AC
:100E20000020938507163A85EFF00FC43DA89387FD
:100E30008181DE2313F7F70F93878181BE2393F718
:100E4000F70FBE853A85EF10006005A0FD57A30798
:100E5000F4FE010019A883C7818193F7070491E785
:100E6000FD57A307F4FE11A0010093878181FE23A3
:100E700093960701C182130700046374D700930798
:100E800000042316F4FEB7070020938787039C47CE
:100E90000357C4FE3A86BE85B707002013850716A0
:100EA000EF307071B7070020938787039847835707
:100EB000C4FE3E97B70700209387870398C71DADF0
:100EC000938781819C332D476369F76013972700CF
:100ED00099679387C718BA979C43828793878181C4
:100EE000BE23A183C207C18393F7F70F3D47636118
:100EF000F71C1397270099679387C71BBA979C43E2
:100F00008287B70700209387870319671307C71FD6
:100F100098C7C9472316F4FE45A2B7370240938706
:100F200007409C2793F7F70F13F7370085476310A7
:100F3000F702B7070020938787030547D8A3B707B1
:100F400000209387870313070020FAA331A8B7076F
:100F500000209387870323820700B7070020938729
:100F6000870313070004FAA3B707002093878703BA
:100F7000FE23BE85094571382A87B707002093876D
:100F8000870398C79307B0042316F4FE35A293870E
:100F90008181BE2393F7F70F0547638AE702054770
:100FA0006344F70089CB41A009476380E7040D47FC
:100FB000638BE7048DA8B707002093878703138707
:100FC000018198C783C701812316F4FE8DA0B7075E
:100FD00000209387870319671307072198C799672C
:100FE00083C707212316F4FE99A0B7070020938733
:100FF000870319671307072298C7996783C70722D2
:101000002316F4FE2DA0B707002093878703370728
:1010100000201307070998C7B707002083C70709EF
:101020002316F4FE29A0FD57A307F4FE010069A0D2
:10103000B70700209387870319671307872398C78B
:10104000996783C787232316F4FEBDA0FD57A30726
:10105000F4FE9DA0B707002093878703D823854718
:10106000631EF700930500041D45EFF08FFA2A87F1
:10107000B70700209387870398C735A0B7070020DC
:1010800093878703DC2389EF930500201D45EFF04C
:101090004FF82A87B70700209387870398C721A0B6
:1010A000FD57A307F4FE9307B0042316F4FE29A00E
:1010B000FD57A307F4FE010093878181FE230357A8
:1010C000C4FE6377F700938781810357C4FEFAA3B8
:1010D00093878181FE2393960701C1821307000441
:1010E0006374D700930700042316F4FEB7070020AB
:1010F000938787039C470357C4FE3A86BE85B7078C
:10110000002013850716EF30104BB7070020938798
:10111000870398478357C4FE3E97B70700209387FD
:10112000870398C7C1AE93878181BE2313F7F70F5A
:10113000B70700209387870398B36DAEB7070020E9
:1011400003C78703B70700202380E71693878181B1
:10115000FA23854763F9E738938781810547FAA326
:1011600059A693878181BE2313F7F70FB707002095
:10117000238CE702B7070020938787030547B8B39E
:1011800095AE83C78181FD8B9DEB93878181BE23C3
:1011900013F7F70F85476310F702B707002093870F
:1011A0008703BC23F99B13F7F70FB707002093873A
:1011B0008703B8A381A6FD57A307F4FE25AE83C716
:1011C000818113F7F70189476319F70693878181B6
:1011D000BE2393F7F70FB1EF93878181DE2393F757
:1011E000F70F130710086389E702130720086386C7
:1011F000E7000947638BE70005A8B73702409387EC
:10120000074009472381E70E2DA8B737024093878F
:101210000740A381070E35A0B737024093870740E8
:101220000947238FE70C31A8FD57A307F4FE0100FF
:1012300009A8FD57A307F4FE75ACFD57A307F4FEFC
:1012400055AC4DAC83C78181FD8BDDEB93878181EC
:10125000BE2313F7F70F8547631DF702B70700207A
:1012600093874704FC3393F7070285C3B707002031
:1012700093878703BC2393E7170013F7F70FB7078C
:10128000002093878703B8A38DA4FD57A307F4FE1E
:10129000A9AC93878181BE2313F7F70F8947631D9C
:1012A000F70493878181DA23930700106307F7021D
:1012B00093878181DA23930700206300F7029387E5
:1012C0008181DA23930700306309F70093878181D6
:1012D000DA2393070040631AF720B70700209387AB
:1012E0008703DC3393E707F813F7F70FB7070020FE
:1012F00093878703D8B3D5AAFD57A307F4FEF5A2B9
:1013000083C7818113F7F70189476316F70A93872B
:101310008181BE2393F7F70FD9EF93878181DE2375
:1013200093F7F70F130710086380E70613072008E9
:101330006386E70009476386E70295A8B73702404E
:101340009387074083C7270E13F7F70FB73702407D
:1013500093870740136737001377F70F2381E70E52
:10136000A1A8B73702409387074083C7370E13F70A
:10137000F70FB7370240938707401367370013779B
:10138000F70FA381E70E0DA8B737024093870740F8
:1013900083C7E70D13F7F70FB7370240938707406E
:1013A000136737001377F70F238FE70C31A0FD5732
:1013B000A307F4FE11A001000DAAB70700202380A7
:1013C000071693878181FA23854763F2E712938793
:1013D00081810547FAA321AAB707002023800716B9
:1013E000B707002093870716A380070083C7818172
:1013F00013F7F70189476311F70A93878181DE2389
:1014000093F7F70F130710086380E7061307200808
:101410006386E70009476386E70295A8B73702406D
:101420009387074083C7270E93F7F70F13F737000B
:101430008D476314F708B707002005472380E71698
:10144000ADA8B73702409387074083C7370E93F79D
:10145000F70F13F737008D476313F706B707002020
:1014600005472380E716A1A8B737024093870740B6
:1014700083C7E70D93F7F70F13F737008D47631214
:10148000F704B707002005472380E7161DA8FD577E
:10149000A307F4FE01003DA083C78181FD8B9DE37E
:1014A000B707002093878703BC23858B81CFB707BD
:1014B000002009472380E71631A0010021A0010088
:1014C00011A0010093878181FA23894763F3E70222
:1014D000938781810947FAA329A8FD57A307F4FE42
:1014E00011A8010001A8010031A0010021A0010004
:1014F00011A001000347F4FE9307F00F6311F702F8
:10150000B7370240938707402D47238DE70CB73745
:101510000240938707402D47A38DE70C59A883C746
:101520008181E207E18763DD070493878181FE23E0
:1015300093960701C182130700046374D7009307D1
:1015400000042316F4FE93878181FA238357C4FE97
:10155000B307F74013970701418393878181FAA36B
:10156000B7370240938707400357C4FE239CE70C1C
:10157000B7370240938707402147238DE70C15A812
:1015800093878181FE2399EFB73702409387074005
:10159000239C070CB7370240938707402147238DD0
:1015A000E70C01A8B7370240938707402147A38D76
:1015B000E70CB73702409387074013070002B8A72C
:1015C000C9A88347B4FE858BB9CBB7070020238C0D
:1015D0000702B707002093878703A3800700B70798
:1015E00000209387870323810700B7070020938794
:1015F0008703A3810700B737024093870740A38181
:101600000700EFF08F809387818B0547A38EE70259
:10161000B7370240938707400547B8A79DA883477F
:10162000B4FE918BA5C3B73702409387074011479B
:10163000B8A72945EF300047B737024093870740E6
:101640009C3793F7F70F918B85C3B70700209387DB
:101650008703BC2393E7270013F7F70FB707002092
:1016600093878703B8A335A0B70700209387870324
:10167000BC23F59B13F7F70FB70700209387870369
:10168000B8A301A8B7370240938707400347B4FEC9
:10169000B8A701007244056173002030011106CE25
:1016A00022CC0010232004FE232204FE231404FE77
:1016B00037050040EF207050930730062312F4FEE8
:1016C000B707002003A78712B7470F0093870724A7
:1016D000B357F702C207C183FD17C207C1832310A6
:1016E000F4FE231304FE231104FE930704FEBE85BB
:1016F00037050040EF20F060854537050040EF30AA
:1017000040020546854537050040EF20107B9307D2
:10171000C0022326F4FE8327C4FEFD8B0547B316C3
:10172000F70037E700E08327C4FE9583938707041B
:101730008A07BA9794C3854537050040EF20F072B9
:101740000100F240624405618280011122CE001046
:101750002326A4FE8327C4FE238F07028327C4FE0B
:10176000130720FCA38FE7028327C4FE05472380CD
:10177000E7048327C4FEA38007048327C4FE2381D4
:1017800007048327C4FEA38107048327C4FE2147DF
:101790002382E7040100724405618280411106C67C
:1017A00022C4000885453145EF20901C8545B707C8
:1017B000060013851700EF20102085450D45EF200A
:1017C000D016375700401307078023ACE18A938770
:1017D000818B370702407107D8C39387818B370706
:1017E00002401307070398C79387818B37070020B0
:1017F00013078722D8C79387818B1387013098CB33
:101800001385818B9937593D1385818BDD2E01001E
:10181000B2402244410182805D7186C6A2C4800824
:10182000232EA4FA232CB4FAB2873687A30BF4FA3A
:10183000BA87230BF4FA232A04FC232C04FC232E5E
:1018400004FC232004FE232404FC232604FC232878
:1018500004FC8327C4FB9C432322F4FE032744FE9D
:10186000B747004093870740631FF700914723174E
:10187000F4FEA1472316F4FEB717014093870780B3
:101880002324F4FE05A8032744FEB757004093879E
:101890000780631EF712930700402317F4FE856745
:1018A000938707802316F4FEB7170140938707C07C
:1018B0002324F4FE0357E4FE832784FE98CB83574A
:1018C000E4FE2314F4FC8D472326F4FCC1472328AF
:1018D000F4FC930784FCBE85032584FEEF10F073AF
:1018E000832744FEDE27C207C183CD9B13970701E0
:1018F0004183832744FEDAA78357C4FE2314F4FCF4
:10190000930780042328F4FC930784FCBE850325F9
:1019100084FEEF1090708357E4FE2314F4FCE1473B
:101920002328F4FC930784FCBE85032584FEEF1076
:10193000D06E832784FB232AF4FC231C04FC03477A
:1019400074FB85476316F7008D67231DF4FC21A8FF
:10195000034774FB89476316F7008967231DF4FC6E
:1019600019A0231D04FC034764FB8547631AF70095
:1019700093070060231EF4FC8567231CF4FC05A07C
:10198000034764FB8947631AF70093070040231E4F
:10199000F4FC8567231CF4FC19A0231E04FC23100F
:1019A00004FEB147231FF4FC930744FDBE850325C5
:1019B00044FEEF20D05993050004032544FEEF3088
:1019C00040078545032544FEEF20B07311A00100B8
:1019D000B640264461618280797106D622D400180F
:1019E000232EA4FC930750052324F4FE832784FEB2
:1019F000FD8B0547B316F70037E700E0832784FE29
:101A00009583938707068A07BA9794C38327C4FDF3
:101A1000239807028327C4FD239907028327C4FD67
:101A2000239A07028327C4FD9387670311468145E4
:101A30003E85EFE0EFF88327C4FD238E070283275E
:101A4000C4FD239D07028327C4FD2390070283273B
:101A5000C4FD239107028327C4FD23920702832735
:101A6000C4FD93876702114681453E85EFE04FF53F
:101A70008327C4FD238F07008327C4FDD847B737CA
:101A8000024093870740D8D38327C4FD984BB737CC
:101A9000024093870740B8D3B73702409387074087
:101AA00083C7370E13F7F70FB73702409387074006
:101AB000719B1377F70FA381E70EB73702401387A7
:101AC0000740B7370240938707400347370E137725
:101AD000F70FA381E70E930750052326F4FE832713
:101AE000C4FEFD8B0547B316F70037E700E08327F8
:101AF000C4FE9583938707048A07BA9794C30100AD
:101B0000B2502254456182805D7186C6A2C48008AD
:101B1000232EA4FA232CB4FA232AC4FA2328D4FAB5
:101B2000232204FC232404FC232604FC232804FC95
:101B3000232A04FC232C04FC232E04FC232004FE73
:101B4000232204FE232404FE232604FE8327C4FB51
:101B50009C4391072322F4FC832744FB2324F4FCB9
:101B6000832704FB2328F4FC232A04FC93070008A2
:101B7000232CF4FC232E04FC232004FE856723245D
:101B8000F4FE832784FB8DEF8327C4FBDC433E8573
:101B9000EF10A075C1472326F4FC232204FE8327FF
:101BA000C4FBDC43130744FCBA853E85EF101025C7
:101BB0008327C4FBDC4385453E85EF10B02E2DA85E
:101BC0008327C4FB9C473E85EF102072232604FC2C
:101BD000930700022322F4FE8327C4FB9C471307CC
:101BE00044FCBA853E85EF1070218327C4FB9C47D7
:101BF00085453E85EF10102B0100B64026446161FB
:101C00008280797106D622D40018232EA4FC832763
:101C1000C4FD238F07028327C4FD130720FCA38F75
:101C2000E7028327C4FD05472380E7048327C4FD1B
:101C3000A38007048327C4FD238107048327C4FDF1
:101C4000A38107048327C4FD21472382E704832758
:101C5000C4FD83C71704E2073E878327C4FD83C7FB
:101C60000704C207BA972326F4FE8327C4FD83C75F
:101C7000F703A2073E878327C4FD83C7E703BA970C
:101C80000327C4FEBA972326F4FE0327C4FE930756
:101C9000B01263E7E7009307C0122326F4FE39A8C9
:101CA0000327C4FEB7975B00938707D863F8E70064
:101CB000B7975B00938707D82326F4FE0327C4FE5B
:101CC0009567938707B063F7E7008327C4FD45470F
:101CD000D8BF31A8B7570500138707738327C4FE01
:101CE000B357F70213F7F70F8327C4FDD8BF832735
:101CF000C4FD9C430146930500043E85EF20F0455A
:101D00008327C4FDDC4381453E85EF10B01983274E
:101D1000C4FD9C4781453E85EF10D0188327C4FD44
:101D200003C727048327C4FD83C73704BE863A86CA
:101D30008325C4FE0325C4FDC5348327C4FDDC47C9
:101D400081463E8681450325C4FD7D3B8327C4FD36
:101D50009C4B930600403E8685450325C4FD6D33AC
:101D60008327C4FD9C430546930500043E85EF2070
:101D7000D03E0325C4FD8D310100B250225445618F
:101D80008280797106D622D40018232EA4FC8327E2
:101D9000C4FD83C7D70389CB8327C4FDA38E070265
:101DA0000325C4FDB93DA9A28327C4FDDE3B639191
:101DB0000714930750052326F4FE8327C4FEFD8BEA
:101DC0000547B316F70037E700E08327C4FE958385
:101DD000938707068A07BA9794C38327C4FDFC2F0D
:101DE000A1C7B73702409387074083C7370E13F761
:101DF000F70FB737024093870740719B1377F70FB0
:101E0000A381E70EB737024013870740B737024078
:101E1000938707400347370E1377F70FA381E70E29
:101E20008327C4FD238F07008327C4FDDE3399CBAE
:101E3000EF00F0038327C4FD239207028327C4FD2C
:101E40002391070283A70182C1C383A7018213875D
:101E5000F7FF23A0E1828327C4FD9C4B0327C4FD29
:101E60001A3B26073E9713060020B71700209385DC
:101E700087223A85EF2030748327C4FD9E3B0327D9
:101E8000C4FDE1078607BA9713070020FAA383274A
:101E9000C4FD9E3B91C78327C4FD2398070219A860
:101EA0008327C4FD9E3B8507139707014183832742
:101EB000C4FD9ABB8327C4FDDE3B8507139707014A
:101EC00041838327C4FDDABB930750052324F4FE26
:101ED000832784FEFD8B0547B316F70037E700E044
:101EE000832784FE9583938707048A07BA9794C350
:101EF000B250225445618280397106DE22DC8000B6
:101F00002326A4FC8327C4FC83C7C7036390071A56
:101F10008327C4FCDE3B638207268327C4FCBE3BC9
:101F2000A6072326F4FE8327C4FCBE3B0327C4FC7C
:101F3000E1078607BA97FE232324F4FE8327C4FC17
:101F4000BE3B91C78327C4FC2399070219A88327A6
:101F5000C4FCBE3B85071397070141838327C4FC5C
:101F6000BABB8327C4FCDE3BFD17139707014183EF
:101F70008327C4FCDABB930750052322F4FE832792
:101F800044FEFD8B0547B316F70037E700E08327D3
:101F900044FE9583938707068A07BA9794C38327DD
:101FA00084FEE1CB8327C4FC984F832784FE3E97B1
:101FB0008327C4FC98CFB707002093878703FE23AD
:101FC0003E87832784FE63E8E7028327C4FC984F9B
:101FD0008567636CF7008327C4FC23AC0700832765
:101FE000C4FC0947238EE70205A08327C4FC0547EC
:101FF000238EE70211A88327C4FC23AC07008327A4
:10200000C4FC0547238EE7028327C4FC984B832733
:10201000C4FE3E97B737024093870740B8D3B7371F
:10202000024093870740032784FE420741832390A1
:10203000E70EB73702409387074083C7270E13F791
:10204000F70FB737024093870740719B1377F70F5D
:102050002381E70EB737024013870740B7370240A6
:10206000938707400347270E1377F70F2381E70E67
:1020700029A08327C4FC23AC070093075005232025
:10208000F4FE832704FEFD8B0547B316F70037E700
:1020900000E0832704FE9583938707048A07BA9795
:1020A00094C38327C4FC239D0702C1A88327C4FCD3
:1020B000BA3F9D679387F75263F1E70C8327C4FC0F
:1020C000CC4B8327C4FCDE3B3E868327C4FCDE3337
:1020D000BE868327C4FCBE3B3E8799671385C7062F
:1020E000EF2090588327C4FC239D070293075005D7
:1020F000232CF4FC832784FDFD8B0547B316F700E2
:1021000037E700E0832784FD9583938707068A07D6
:10211000BA9794C3B7070050239A0702B707005035
:1021200083C7670313F7F70FB7070050719B137747
:10213000F70F238BE70237070050B707005003471C
:1021400067031377F70F238BE70293075005232EBE
:10215000F4FC8327C4FDFD8B0547B316F70037E772
:1021600000E08327C4FD9583938707048A07BA9705
:1021700094C38327C4FC238E07020100F2506254EB
:1021800021618280411122C600080945EF10205AC2
:102190002A8785476318F702B7170020138787221D
:1021A000B71700200907938787029306E01F36863A
:1021B000BE853A85EF20304083A701821387170040
:1021C00023A0E1820545EF10005E01003244410189
:1021D00073002030397106DE22DC8000232804FCE5
:1021E000232A04FC232C04FC232E04FC232004FEBD
:1021F000232204FE232404FE232604FE232204FCBF
:10220000232404FC232604FCB717002005671307CA
:10221000F7AF2394E72285451145EF10707585458A
:1022200013050020EF10D0742165EF10D0328947DC
:102230002312F4FC232604FC930744FCBE85B71745
:10224000014013850780EF10405DB72701401385DB
:102250000740EF009012232804FC232A04FC854742
:10226000232CF4FCB7070E00232EF4FC856793871C
:1022700007802320F4FE85472302F4FE930704FD24
:10228000BE85B727014013850740EF00101585452F
:10229000B727014013850740EF0010288545B72771
:1022A000014013850740EF0050238145B7270140C7
:1022B00013850740EF00305DB727014013850740C5
:1022C000EF0070290100B727014013850740EF0098
:1022D000B02AAA87EDFBB727014013850740EF001E
:1022E000B02C0100B727014013850740EF00F02D07
:1022F000AA87EDFBB727014013850740EF00F05C8C
:10230000AA873E872392E1820100F2506254216144
:1023100082801D7186CEA2CC80102326A4FA2324AD
:10232000B4FA2322C4FAB6872311F4FA232204FC58
:10233000232404FC232604FC232804FC232A04FC75
:10234000232C04FC232E04FC232004FE232204FE61
:10235000232404FE232604FE232E04FA232004FC57
:1023600085450545EF10705C0325C4FAEF00F07752
:10237000832784FA2322F4FC832744FA2324F4FCE1
:10238000232604FC835724FA2328F4FC232A04FC84
:1023900093070008232CF4FC93070010232EF4FC71
:1023A000930700402320F4FE930700022322F4FE4B
:1023B0008D672324F4FE232604FE930744FCBE8588
:1023C0000325C4FAEF108023ED47230EF4FA894762
:1023D000A30EF4FA230F04FA85472320F4FC930795
:1023E000C4FB3E85EF10B00405468945B70702409F
:1023F00013858700EF10002F0100F6406644256129
:102400008280411106C622C40008E9338946054688
:102410008545B727014013850740EF0050228145CD
:10242000B727014013850740EF00300B83974182A7
:10243000BE8599671385C709EF2010230100B240BC
:10244000224441018280797106D622D40018AA87DD
:102450002E87A30FF4FCBA87230FF4FC9387818B9C
:102460002326F4FE8347E4FD0327C4FE03576704D5
:10247000B98F858BD1CB8347E4FD858BA1CF99673D
:102480001385470BEF20902F8545B7270140138513
:102490000740EF009004B717002093878702930648
:1024A000F00F3E86B72701409385C744B707024027
:1024B00013858700B93D8545B7070240138587001E
:1024C000EF10401E8545B727014013850740EF00F8
:1024D000D0121DA899671385070CEF20302A81457B
:1024E000B707024013858700EF10C01B8145B7274F
:1024F000014013850740EF0050108145B727014088
:1025000013850740EF00607D9387818B239A070234
:102510009387818B2398070223A001828347E4FDE0
:102520001397070141838327C4FE2393E704010027
:10253000B250225445618280411122C60008010038
:102540003244410173002030411122C60008114578
:10255000EF10A07AAA878DCB1145EF10407D9967C7
:102560001385C70CEF20E07A1305803EEF20C05B97
:1025700099671385870DEF20C079B7E700E037072B
:10258000EFBE13070708B8C74165EF100027010029
:102590003244410173002030411122C60008938764
:1025A000818BDC2F850713F7F70F9387818BD8AFCB
:1025B0009387818BBE3F85071397070141839387DC
:1025C000818BBABFB707004079579AAB01003244FC
:1025D000410173002030011122CE0010232604FE99
:1025E00099671385870EEF20C0728327C4FEFD17FD
:1025F0002326F4FE8327C4FEEDFBB7E700E0370790
:10260000EFBE13070708B8C70100724405617300E5
:102610002030011106CE22CC0010232204FE2324F8
:1026200004FE232604FE85457145EF1070349305A2
:102630000010B717014013850780EF102040930763
:1026400000102312F4FEC1472326F4FE8D472324F5
:10265000F4FE930744FEBE85B7170140138507803B
:10266000EF10A01B0100F24062440561828041111D
:1026700022C6000883C7618289CBB71701409387C0
:1026800007801307001098CB01A8B7170140938764
:10269000078013070010D8CB83C7618293C7170048
:1026A00013F7F70F2383E182010032444101828056
:1026B000797106D622D400188922EF20403AF167BA
:1026C00013850720EF20804EA93799671385470FA0
:1026D000EF20D00AEF00F03FAA87BE8599671385E7
:1026E000C712EF2060789307C4FD3E85EF10006BA2
:1026F0008327C4FDBE8599671385C713EF20C07675
:10270000832704FEBE8599671385C714EF20C07523
:10271000832744FEBE8599671385C715EF20C074D3
:10272000832784FEBE8599671385C716EF20C07383
:102730008327C4FEBE8599671385C717EF20C07233
:10274000EFF0CF85EFD0BFE80545EFD01FFC55393E
:102750001385818BEFF0EFE21385818BEFF0CFF9DA
:10276000C5BF411106C622C40008B71702409843EE
:10277000B71702401367170098C3B7170240D44336
:10278000B71702403707FFF0758FD8C3B71702405D
:102790009443B71702403707F7FE7D17758F98C32C
:1027A000B71702409443B71702403707FCFF7D1765
:1027B000758F98C3B7170240D443B7170240370745
:1027C00001FF7D17758FD8C3B71702409443B71721
:1027D0000240370700EC7D17758F98C3B71702408A
:1027E0003707FF0098C7B717024023A60702E92A58
:1027F0000100B240224441018280011122CE00102A
:10280000232204FE232604FE232004FE232404FEA8
:10281000B7170240DC43B18B2322F4FE032744FEAA
:1028200091476304F702032744FEA1476308F702B8
:10283000832744FE63900714B707002037177A00F8
:102840001307072023A4E71281A2B7070020371738
:102850007A001307072023A4E7123DA2B71702400E
:10286000D843B7073C00F98F2326F4FEB717024080
:10287000D843C167F98F2320F4FE8327C4FEC983A0
:1028800089072326F4FE0327C4FE89476315F70052
:10289000C9472326F4FE0327C4FEBD476318F7008B
:1028A000B5472326F4FE85472324F4FE0327C4FE00
:1028B000C1476315F700BD472326F4FE0327C4FE76
:1028C000C5476315F700C1472326F4FE832704FE9E
:1028D000B1E3B7470240938707809C43C18B91CFF8
:1028E0000327C4FEB7177A00938707203307F70240
:1028F000B707002023A4E712B1A80327C4FEB71727
:102900003D00938707903307F702B707002023A401
:10291000E71289A0B7170240D843B7070200F98F22
:1029200091CF0327C4FEB7173D0093870790330765
:10293000F702B707002023A4E71229A80327C4FE43
:10294000B7177A00938707203307F702B7070020ED
:1029500023A4E712032784FE85476316F702B7070F
:10296000002083A7871213D71700B707002023A4DE
:10297000E71211A8B707002037177A0013070720BE
:1029800023A4E71211A00100B7170240DC43918392
:1029900013F7F700B70700209387870ABA979C239D
:1029A00093F7F70F2322F4FEB707002003A787123F
:1029B000832744FE3357F700B707002023A4E7120C
:1029C0000100724405618280411106C622C40008DC
:1029D00031200100B240224441018280011122CE07
:1029E0000010232604FE232404FEB717024094435C
:1029F000B71702404167558F98C3B71702409843F5
:102A0000B7070200F98F2324F4FE8327C4FE85074D
:102A10002326F4FE832784FE91E70327C4FE8567FF
:102A2000E31DF7FCB71702409843B7070200F98F80
:102A300089C785472324F4FE19A0232404FE032715
:102A400084FE8547631FF70837170240B717024017
:102A50005843D8C337170240B71702405843D8C36A
:102A600037170240B71702405843D8C3B717024080
:102A7000D443B71702403707C1FF7D17758FD8C3FE
:102A8000B7170240D443B71702404167558FD8C3E8
:102A9000B71702409443B717024037070001558F1C
:102AA00098C30100B71702409843B7070002F98F97
:102AB000F5DBB7170240D843B7170240719BD8C364
:102AC000B7170240D843B717024013672700D8C38F
:102AD0000100B7170240DC4313F7C700A147E31A10
:102AE000F7FE010072440561828001A097E1FF1F9B
:102AF0009381C1E3175100201301C1501735000025
:102B00001305457E97D5FF1F9385C54F1386818199
:102B100063FAC5008322050023A055001105910525
:102B2000E3EAC5FE1385818197F5FF1F93854590E4
:102B30006377B500232005001105E36DB5FEFD4266
:102B4000739002BCAD4273904280B76200009382E2
:102B500082087390023097D2FFFF9382E24A93E299
:102B6000320073905230EFF0DFBF97020000938283
:102B700062B47390123473002030011106CE22CC5F
:102B800000102326A4FE0327C4FEB7270140938725
:102B90000740631DF700854513050020EF10006610
:102BA000814513050020EF1060651DA00327C4FEBA
:102BB000B737014093870780631CF70085451305ED
:102BC0000040EF10A063814513050040EF10006343
:102BD0000100F240624405618280797122D60018BA
:102BE000232EA4FC232CB4FC232604FEA30504FE00
:102BF0008327C4FDDC432326F4FE0327C4FEB70766
:102C0000F1E09387F7EFF98F2326F4FE832784FD05
:102C10009843832784FD9C4F5D8F832784FDDC4F81
:102C20005D8F832784FDDC43A207D98F0327C4FE71
:102C3000D98F2326F4FE8327C4FD0327C4FED8C3FF
:102C40008327C4FD9C472326F4FE0327C4FEB7F761
:102C5000F1FF9387D77FF98F2326F4FE832784FD26
:102C6000984B832784FDDC475D8F832784FD9C4739
:102C70008607D98F0327C4FED98F2326F4FE832726
:102C8000C4FD0327C4FE98C78327C4FDDC57232651
:102C9000F4FE0327C4FEB70710FFFD17F98F2326A4
:102CA000F4FE832784FDDC2BFD1713F7F70F834712
:102CB000B4FED98FA305F4FE8347B4FED2070327E1
:102CC000C4FED98F2326F4FE8327C4FD0327C4FE48
:102CD000D8D70100325445618280011122CE001004
:102CE0002326A4FE2324B4FE832784FE91CB8327CE
:102CF000C4FE9C4713E717008327C4FE98C709A8A2
:102D00008327C4FE9C4713F7E7FF8327C4FE98C7B9
:102D10000100724405618280011122CE0010232639
:102D2000A4FE2324B4FE832784FE91CB8327C4FE14
:102D30009C4713E707108327C4FE98C709A8832779
:102D4000C4FE9C4713F7F7EF8327C4FE98C7010022
:102D5000724405618280011122CE00102326A4FE58
:102D60008327C4FE9C4713E787008327C4FE98C7C8
:102D70000100724405618280797122D60018232EE9
:102D8000A4FC232604FE8327C4FD9C47A18B89C78E
:102D900085472326F4FE19A0232604FE8327C4FEBC
:102DA0003E85325445618280011122CE00102326D7
:102DB000A4FE8327C4FE9C4713E747008327C4FE75
:102DC00098C70100724405618280797122D600188B
:102DD000232EA4FC232604FE8327C4FD9C47918B4D
:102DE00089C785472326F4FE19A0232604FE8327DE
:102DF000C4FE3E85325445618280011122CE00100E
:102E00002326A4FE2324B4FE832784FE99CB8327A4
:102E1000C4FE9847B70750005D8F8327C4FE98C74C
:102E200019A88327C4FE9847B707B0FFFD177D8F09
:102E30008327C4FE98C701007244056182807971BE
:102E400022D60018232EA4FCAE873687A30DF4FCEF
:102E5000B287230DF4FCBA87A30CF4FC232604FEEE
:102E6000232404FE0347B4FDA54763F6E706832742
:102E7000C4FDDC472326F4FE8347B4FD138767FFB8
:102E8000BA878607BA971D47B317F7002324F4FEC5
:102E9000832784FE93C7F7FF0327C4FEF98F2326F9
:102EA000F4FE834694FD8347B4FD138767FFBA871A
:102EB0008607BA97B397F6002324F4FE0327C4FECF
:102EC000832784FED98F2326F4FE8327C4FD03279E
:102ED000C4FED8C785A08327C4FD9C4B2326F4FEDF
:102EE0000347B4FDBA878607BA971D47B317F700A3
:102EF0002324F4FE832784FE93C7F7FF0327C4FE31
:102F0000F98F2326F4FE834694FD0347B4FDBA8768
:102F10008607BA97B397F6002324F4FE0327C4FE6E
:102F2000832784FED98F2326F4FE8327C4FD03273D
:102F3000C4FE98CB0347A4FD994763E6E7068327C1
:102F4000C4FDDC5B2326F4FE8347A4FD1387F7FF53
:102F5000BA878A07BA977D47B317F7002324F4FE90
:102F6000832784FE93C7F7FF0327C4FEF98F232628
:102F7000F4FE8346B4FD8347A4FD1387F7FFBA87A9
:102F80008A07BA97B397F6002324F4FE0327C4FEFA
:102F9000832784FED98F2326F4FE8327C4FD0327CD
:102FA000C4FED8DBE9A80347A4FDB14763E6E70602
:102FB0008327C4FD9C5B2326F4FE8347A4FD13876F
:102FC00097FFBA878A07BA977D47B317F70023247C
:102FD000F4FE832784FE93C7F7FF0327C4FEF98F0F
:102FE0002326F4FE8346B4FD8347A4FD138797FF91
:102FF000BA878A07BA97B397F6002324F4FE03270B
:10300000C4FE832784FED98F2326F4FE8327C4FDC4
:103010000327C4FE98DBA5A08327C4FDDC57232625
:10302000F4FE8347A4FD138737FFBA878A07BA9750
:103030007D47B317F7002324F4FE832784FE93C74C
:10304000F7FF0327C4FEF98F2326F4FE8346B4FD61
:103050008347A4FD138737FFBA878A07BA97B397C8
:10306000F6002324F4FE0327C4FE832784FED98FB1
:103070002326F4FE8327C4FD0327C4FED8D701000E
:10308000325445618280011122CE00102326A4FE15
:103090002324B4FE832784FE99CB8327C4FED84320
:1030A000B70700045D8F8327C4FED8C319A8832700
:1030B000C4FED843B70700FCFD177D8F8327C4FEED
:1030C000D8C30100724405618280397106DE22DCBA
:1030D00080002326A4FCA30704FE99A80325C4FCB2
:1030E0009D3901000325C4FC4139AA87E5FF03256A
:1030F000C4FC5D3901000325C4FCC139AA87E5FF82
:103100008327C4FCF8478347F4FE93F7F70F420781
:1031100041838607930604FFB6972394E7FE83470F
:10312000F4FE93F7F70F850793F7F70FA307F4FE65
:103130008347F4FE13F7F70FA547E3F1E7FAA30778
:1031400004FEF1A0230704FE5DA08347E4FE93F78D
:10315000F70F8607130704FFBA9703D787FE834745
:10316000E4FE93F7F70F85078607930604FFB697EB
:1031700083D787FE63F4E7068347E4FE93F7F70FF0
:103180008607130704FFBA9783D787FE231BF4FC37
:103190008347E4FE93F7F70F85070347E4FE1377B1
:1031A000F70FBA868607130704FFBA9703D787FE7F
:1031B00093971600930604FFB6972394E7FE834780
:1031C000E4FE93F7F70F8507035764FD4207418339
:1031D0008607930604FFB6972394E7FE8347E4FE31
:1031E00093F7F70F850793F7F70F2307F4FE83474D
:1031F000E4FE13F7F70FA147E3F9E7F48347F4FE82
:1032000093F7F70F850793F7F70FA307F4FE8347AC
:10321000F4FE13F7F70FA547E3F6E7F2231B04FCD0
:10322000A30704FE35A88347F4FE93F7F70F890739
:103230008607130704FFBA9703D787FE835764FDF9
:10324000C207C183BA97C207C183231BF4FC83471B
:10325000F4FE93F7F70F850793F7F70FA307F4FE34
:103260008347F4FE13F7F70F9547E3FEE7FA83571A
:1032700064FD1397070141839947B357F7021397EA
:1032800007014183835764FD93960701C1829947E3
:10329000B3F7F60293960701C1828D47B3D7F602C2
:1032A000C207C183BA97C207C183231BF4FC8357AB
:1032B00064FDC207C183056713070780B307F740A2
:1032C000C207C183C207C1873E85F25062542161A3
:1032D0008280411122C60008B7F7FF1F938747700D
:1032E0009C433E85324441018280011122CE001070
:1032F0002326A4FE8327C4FE9843C167F9177D8F58
:103300008327C4FE98C38327C4FE23A00700832716
:10331000C4FE23A207008327C4FE23A4070083273B
:10332000C4FE23A607000327C4FEB7070240A10777
:10333000631BF700B7070240D843B7070240136783
:10334000F700D8C345AC0327C4FEB7070240F10716
:10335000631BF700B7070240D843B7070240136763
:10336000070FD8C341AC0327C4FEB70702409387B9
:103370000703631DF700B7070240D443B7070240B5
:103380000567130707F0558FD8C3ADA40327C4FE04
:10339000B707024093874704631BF700B707024053
:1033A000D443B70702403D67558FD8C3A1A4032774
:1033B000C4FEB707024093878705631CF700B70771
:1033C0000240D443B707024037070F00558FD8C3D8
:1033D00015A40327C4FEB70702409387C706631CE2
:1033E000F700B7070240D443B70702403707F000A1
:1033F000558FD8C301A40327C4FEB70702409387A3
:103400000708631CF700B7070240D443B707024020
:103410003707000F558FD8C3F1AA0327C4FEB7079B
:10342000024093878740631FF700B70702409387E6
:103430000740D843B7070240938707401367F70058
:10344000D8C34DAA0327C4FEB70702409387C741DC
:10345000631FF700B707024093870740D843B707B9
:103460000240938707401367070FD8C361A2032761
:10347000C4FEB7070240938707436311F702B707FB
:10348000024093870740D443B70702409387074021
:103490000567130707F0558FD8C3A9AA0327C4FEF1
:1034A000B707024093874744631FF700B7070240FE
:1034B00093870740D443B7070240938707403D678F
:1034C000558FD8C305AA0327C4FEB70702409387C8
:1034D00087456310F702B707024093870740D4433C
:1034E000B70702409387074037070F00558FD8C3AF
:1034F00011A20327C4FEB70702409387C746631093
:10350000F702B707024093870740D443B70702404A
:10351000938707403707F000558FD8C3E1A80327EA
:10352000C4FEB7070240938707486310F702B70746
:10353000024093870740D443B70702409387074070
:103540003707000F558FD8C375A00327C4FEB707F0
:10355000024093870749631FF700B707024093872C
:10356000074DD843B70702409387074D1367F7000D
:10357000D8C349A00327C4FEB70702409387074A70
:10358000631FF700B70702409387074DD843B7077B
:1035900002409387074D1367070FD8C3A1A80327DD
:1035A000C4FEB70702409387074B6311F702B707C2
:1035B00002409387074DD443B70702409387074DD6
:1035C0000567130707F0558FD8C32DA00327C4FE46
:1035D000B70702409387074C631EF700B707024006
:1035E0009387074DD443B70702409387074D3D6744
:1035F000558FD8C30100724405618280797122D64B
:103600000018232EA4FC232CB4FC232604FE8327BD
:10361000C4FD9C432326F4FE0327C4FEE177BD07C7
:10362000F98F2326F4FE832784FD9847832784FDA2
:103630009C535D8F832784FD9C4B5D8F832784FD86
:10364000DC4B5D8F832784FD9C4F5D8F832784FD3A
:10365000DC4F5D8F832784FDDC535D8F832784FDE2
:103660009C57D98F0327C4FED98F2326F4FE8327C6
:10367000C4FD0327C4FE98C3832784FDD84783274E
:10368000C4FDD8C3832784FD98438327C4FD98C70E
:10369000832784FDD8438327C4FDD8C70100325453
:1036A00045618280011122CE00102326A4FE23242E
:1036B000B4FE832784FE91CB8327C4FE9C4313E78B
:1036C00017008327C4FE98C311A88327C4FE98431C
:1036D000C167F9177D8F8327C4FE98C30100724428
:1036E00005618280011122CE00102326A4FE23242E
:1036F000B4FE2322C4FE832744FE99CB8327C4FE55
:103700009843832784FE5D8F8327C4FE98C321A836
:103710008327C4FE9843832784FE93C7F7FF7D8FDA
:103720008327C4FE98C301007244056182807971C9
:1037300022D60018232EA4FC232604FE232404FEF4
:103740000327C4FDB7070010F98F89CBB7070240E4
:10375000938707409C432324F4FE25A00327C4FD40
:10376000B7070020F98F89CBB70702409387074D31
:103770009C432324F4FE31A0B70702409C4323243A
:10378000F4FE032784FE8327C4FDF98F89C785478C
:103790002326F4FE19A0232604FE8327C4FE3E85BB
:1037A000325445618280011122CE00102326A4FEEE
:1037B0000327C4FEB7070010F98F89CBB707024073
:1037C000938707400327C4FED8C325A00327C4FE60
:1037D000B7070020F98F89CBB70702409387074DC1
:1037E0000327C4FED8C331A0B70702400327C4FE95
:1037F000D8C30100724405618280011122CE0010FD
:103800002326A4FEB7070140938707400327C4FE81
:10381000D8CB0100724405618280397122DE8000BC
:103820002326A4FC2324B4FC232604FE232004FE28
:10383000232404FE232E04FC232204FE232C04FC58
:10384000832784FC9C47BD8B2326F4FE832784FCBE
:103850009C47C18B89CB832784FCDC430327C4FEB0
:10386000D98F2326F4FE832784FC9E2393F7F70F3A
:10387000E9CF8327C4FC9C432322F4FE232404FEC7
:103880005DA8832784FE0547B317F700232EF4FCB9
:10389000832784FC9E233E878327C4FDF98F232042
:1038A000F4FE032704FE8327C4FD6311F708832772
:1038B00084FE8A07232EF4FC8327C4FD3D47B317FB
:1038C000F700232CF4FC832784FD93C7F7FF03271D
:1038D00044FEF98F2322F4FE8327C4FD0327C4FE90
:1038E000B317F700032744FED98F2322F4FE832762
:1038F00084FC984793078002631BF700832784FEAC
:1039000005473317F7008327C4FCD8CB05A08327CE
:1039100084FC984793078004631AF700832784FE8A
:1039200005473317F7008327C4FC98CB832784FE11
:1039300085072324F4FE032784FE9D47E3F3E7F481
:103940008327C4FC032744FE98C3832784FC9A235F
:103950009307F00F63F0E70E8327C4FCDC432322B8
:10396000F4FE232404FE6DA8832784FEA1070547E7
:10397000B317F700232EF4FC832784FC9E233E8795
:103980008327C4FDF98F2320F4FE032704FE832739
:10399000C4FD6312F708832784FE8A07232EF4FCF4
:1039A0008327C4FD3D47B317F700232CF4FC83277E
:1039B00084FD93C7F7FF032744FEF98F2322F4FE0B
:1039C0008327C4FD0327C4FEB317F700032744FE73
:1039D000D98F2322F4FE832784FC98479307800223
:1039E000631BF700832784FEA10705473317F70001
:1039F0008327C4FCD8CB832784FC98479307800493
:103A0000631BF700832784FEA10705473317F700E0
:103A10008327C4FC98CB832784FE85072324F4FEE8
:103A2000032784FE9D47E3F1E7F48327C4FC0327C3
:103A300044FED8C30100725421618280011122CE5C
:103A400000102326A4FEAE872315F4FE0357A4FE20
:103A50008327C4FED8CB010072440561828079714E
:103A600022D60018232EA4FC232CB4FC232404FE0D
:103A7000232204FE232604FE232004FE8327C4FD04
:103A800063D80700B7070140DC4F2326F4FE31A0BE
:103A9000B7070140DC432326F4FE8327C4FDC1831E
:103AA000BD8B2320F4FE0327C4FDC167FD17F98FEA
:103AB0002324F4FE8327C4FD63D607080327C4FD2F
:103AC000B70730007D8FB70730006314F7028327F4
:103AD00004FEC1070D47B317F7002322F4FE832726
:103AE00044FE93C7F7FF0327C4FEF98F2326F4FE95
:103AF000D5A80327C4FDB7071000F98F95C3832706
:103B000004FE0D47B317F7002322F4FE832744FE7B
:103B100093C7F7FF0327C4FEF98F2326F4FED9A02D
:103B20008327C4FDD58393F7F73F9207032784FECD
:103B3000B317F70093C7F7FF0327C4FEF98F2326B7
:103B4000F4FE4DA00327C4FDB70730007D8FB707F3
:103B500030006315F7020327C4FEB70700F1FD1715
:103B6000F98F2326F4FEB7070140D443B70701407D
:103B7000370700F17D17758FD8C3ADA00327C4FDAB
:103B8000B7071000F98F8DCB832704FE0D47B317BD
:103B9000F7002322F4FE832744FE93C7F7FF032791
:103BA000C4FEF98F2326F4FE0327C4FEB707000FD7
:103BB000D98F2326F4FE3DA08327C4FDD583920729
:103BC000032784FEB317F70093C7F7FF0327C4FE4C
:103BD000F98F2326F4FE0327C4FEB707000FD98F01
:103BE0002326F4FE832784FD85C38327C4FDD58364
:103BF00093F7F73F9207032784FEB317F7000327D5
:103C0000C4FED98F2326F4FE8327C4FD63D80700A2
:103C1000B70701400327C4FED8CF31A0B707014042
:103C20000327C4FED8C301003254456182807971F4
:103C300022D60018232EA4FC03A781828947631B88
:103C4000F7048327C4FD98338D4763E5E704832792
:103C5000C4FD9C23BE868327C4FD9C339A0713971B
:103C6000870161878327C4FDBC239607E207E187AC
:103C7000D98FE207E18793F7F70F2326D4FEA30538
:103C8000F4FE37E700E08327C4FEBA970347B4FE8B
:103C90002380E7408327C4FDDC439DC78327C4FD01
:103CA0009C232322F4FE832744FEFD8B0547B31695
:103CB000F70037E700E0832744FE958393870704E6
:103CC0008A07BA9794C335A08327C4FD9C23232079
:103CD000F4FE832704FEFD8B0547B316F70037E794
:103CE00000E0832704FE9583938707068A07BA9727
:103CF00094C30100325445618280797122D6001844
:103D0000232EA4FC232604FEB7770040D843832744
:103D1000C4FDF98F89C785472326F4FE19A0232601
:103D200004FE8327C4FE3E85325445618280011122
:103D300022CE00102326A4FEB777004094438327A9
:103D4000C4FE13972700B7770040558F98C3010032
:103D5000724405618280797122D60018232EA4FC5A
:103D6000232604FEB7170240DC432326F4FE032774
:103D7000C4FED177FD17F98F2326F4FE0327C4FE76
:103D80008327C4FDD98F2326F4FEB71702400327EB
:103D9000C4FED8C30100325445618280397122DEED
:103DA00080002326A4FC232204FE232604FE2320D5
:103DB00004FE232E04FCA30504FEA30D04FCB71788
:103DC0000240DC43B18B2322F4FE032744FE9147DB
:103DD0006303F702032744FEA1476306F702832724
:103DE00044FE639D07208327C4FC37177A0013071E
:103DF000072098C329AC8327C4FC37177A00130720
:103E0000072098C329A4B7170240D843B7073C003E
:103E1000F98F2326F4FEB7170240D843C167F98F04
:103E20002320F4FE8327C4FEC98389072326F4FEDA
:103E3000B7F7FF1F9387C77098439167F98F91EB8E
:103E40000327C4FEC5476319F704C9472326F4FEB8
:103E5000A1A00327C4FE89476315F700C94723269D
:103E6000F4FE0327C4FEBD476318F700B5472326B9
:103E7000F4FE8547A305F4FE0327C4FEC14763157E
:103E8000F700BD472326F4FE0327C4FEC54763158C
:103E9000F700C1472326F4FE832704FEA1E3B747BA
:103EA0000240938707809C43C18B89CF0327C4FEC0
:103EB000B7177A00938707203307F7028327C4FCDC
:103EC00098C339AA0327C4FEB7173D00938707900C
:103ED0003307F7028327C4FC98C319A2B71702401F
:103EE000D857C167F98FE9C7B7170240DC579183EC
:103EF000BD8B850737177A00130707203357F70262
:103F00008327C4FC98C3B7170240DC57A18393F7FB
:103F1000F70FBD8BA30DF4FC8347B4FD89EF832716
:103F2000C4FC9843BA878A07BA9713D71700832728
:103F3000C4FC98C385A00347B4FD85476310F7020E
:103F40008327C4FC9843BA878607BA978E07BA9727
:103F500013D717008327C4FC98C32DA80347B4FDCB
:103F6000BD47631EF7008327C4FC9843BA878A07BE
:103F7000BA978A073E878327C4FC98C321A8832762
:103F8000C4FC9C430347B4FD09073387E70283273A
:103F9000C4FC98C38327C4FC9843B7170240DC577E
:103FA000BD8B85073357F7028327C4FC98C339A814
:103FB000B7170240DC57BD8B850737177A00130708
:103FC00007203357F7028327C4FC98C38327C4FC18
:103FD00098438327C4FE3307F7028327C4FC98C3A2
:103FE0000347B4FE85476313F7028327C4FC9C4351
:103FF00013D717008327C4FC98C309A88327C4FCE0
:1040000037177A001307072098C311A00100B717CC
:104010000240DC4393F7070F2322F4FE832744FE7C
:1040200091832322F4FEB70700201387870B832791
:1040300044FEBA979C2393F7F70F232EF4FC8327B3
:10404000C4FC98438327C4FD3357F7008327C4FC7F
:10405000D8C3B7170240DC4393F707702322F4FE5E
:10406000832744FEA1832322F4FEB7070020138791
:10407000870B832744FEBA979C2393F7F70F232ED1
:10408000F4FC8327C4FCD8438327C4FD3357F700CF
:104090008327C4FC98C7B7170240D843916793871A
:1040A0000780F98F2322F4FE832744FEAD83232269
:1040B000F4FEB70700201387870B832744FEBA97C7
:1040C0009C2393F7F70F232EF4FC8327C4FCD843DB
:1040D0008327C4FD3357F7008327C4FCD8C7B7171D
:1040E0000240D843B167F98F2322F4FE832744FEB0
:1040F000B9832322F4FEB70700201387C712832752
:1041000044FEBA979C2393F7F70F232EF4FC8327E2
:10411000C4FCD8478327C4FD3357F7028327C4FC68
:1041200098CB0100725421618280011122CE0010CF
:104130002326A4FE2324B4FE832784FE99CBB7173D
:104140000240D44BB71702400327C4FE558FD8CB8B
:1041500021A8B7170240D44B8327C4FE13C7F7FF2B
:10416000B7170240758FD8CB010072440561828079
:10417000011122CE00102326A4FE2324B4FE83279F
:1041800084FE99CBB7170240944FB717024003271C
:10419000C4FE558F98CF21A8B7170240944F8327AC
:1041A000C4FE13C7F7FFB7170240758F98CF010001
:1041B000724405618280011122CE00102326A4FEE4
:1041C0002324B4FE832784FE99CBB7170240D44F33
:1041D000B71702400327C4FE558FD8CF21A8B717C1
:1041E0000240D44F8327C4FE13C7F7FFB71702401E
:1041F000758FD8CF0100724405618280011122CEF3
:1042000000102326A4FE2324B4FE832784FE99CB2A
:10421000B7170240D447B71702400327C4FE558F93
:10422000D8C721A8B7170240D4478327C4FE13C7B5
:10423000F7FFB7170240758FD8C7010072440561B8
:104240008280011122CE00102326A4FE2324B4FE76
:10425000832784FE99CBB7170240944BB7170240CF
:104260000327C4FE558F98CB21A8B7170240944B63
:104270008327C4FE13C7F7FFB7170240758F98CB8B
:104280000100724405618280011122CE00102326B4
:10429000A4FEB7170240D457B7170240370700F9FA
:1042A0007D17758FD8D7B7170240D4578327C4FE20
:1042B00013978701B7170240558FD8D70100724472
:1042C00005618280011122CE00102326A4FEB717BB
:1042D0000240D457B7170240370700F87D17758F93
:1042E000D8D7B7170240D4578327C4FE1397B70116
:1042F000B7170240558FD8D70100724405618280FC
:10430000011122CE00102326A4FEB7170240D45775
:10431000B7170240370700D07D17758FD8D7B7176A
:104320000240D4578327C4FE1397C701B717024032
:10433000558FD8D70100724405618280011122CEC9
:1043400000102326A4FE8327C4FE99CBB717024092
:10435000D457B717024037070040558FD8D719A850
:10436000B7170240D457B7170240370700C07D1770
:10437000758FD8D70100724405618280011122CE69
:1043800000102326A4FEB7170240D457B7170240E7
:10439000370700801347F7FF758FD8D7B71702404C
:1043A000D4578327C4FE1397F701B7170240558FE0
:1043B000D8D70100724405618280011106CE22CC5B
:1043C00000102326A4FE0327C4FEB73701409387BD
:1043D00007C0631DF7008545856713850780393D54
:1043E0008145856713850780113D39A20327C4FEE7
:1043F000B7370140938707406319F7008545096582
:10440000F53B81450965DD3BC5A80327C4FEB757C9
:104410000140938707C0631BF700854537050800F7
:10442000F13B814537050800D13BF9A00327C4FEC5
:10443000B7570140631BF7008545370510007D3BEA
:104440008145370510005D3B45A80327C4FEB7072B
:1044500000406319F70085450545E533814505456D
:10446000CD3359A80327C4FEB70700409387074000
:104470006319F70085450945E93381450945D1337D
:10448000A5A80327C4FEB7170040938707806319C8
:10449000F700854511457533814511455D33A9A860
:1044A0000327C4FEB7170040938707C06319F700BE
:1044B00085452145793381452145613335A8032759
:1044C000C4FEB71700406319F70085454145953B89
:1044D00081454145BD330DA00327C4FEB7170040F9
:1044E00093870740631AF700854513050002913B47
:1044F000814513050002B1330100F24062440561B9
:104500008280797122D60018232EA4FC232CB4FCBF
:10451000231704FE8327C4FD9E232317F4FE0327DD
:10452000C4FDB7370140938707C06306F70603272A
:10453000C4FDB70700406300F7060327C4FDB707B3
:104540000040938707406308F7040327C4FDB717AB
:104550000040938707806300F7040327C4FDB71763
:104560000040938707C06308F7020327C4FDB737ED
:104570000140938707406300F7020327C4FDB75744
:104580000140938707C06308F7000327C4FDB757AE
:1045900001406310F7028357E4FE93F7F7F82317FF
:1045A000F4FE832784FDBA238357E4FED98F2317B3
:1045B000F4FE0327C4FDB71700406308F702032782
:1045C000C4FDB7170040938707406300F702835785
:1045D000E4FE93F7F7CF2317F4FE832784FDFA2335
:1045E0008357E4FED98F2317F4FE8327C4FD0357B6
:1045F000E4FE9AA3832784FDDA238327C4FDDAB778
:10460000832784FD9A238327C4FD9AB70327C4FD1B
:10461000B7370140938707C06308F7020327C4FD3B
:10462000B7370140938707406300F7020327C4FDB3
:10463000B7570140938707C06308F7000327C4FDFD
:10464000B7570140631BF700832784FD9C2713970E
:10465000070141838327C4FD9ABB8327C4FD054717
:10466000DAAB0100325445618280011122CE001084
:104670002326A4FE2324B4FE832784FE99CF832718
:10468000C4FE9E23C207C18393E717001397070157
:1046900041838327C4FE9AA329A88327C4FE9E23AF
:1046A000C207C183F99B1397070141838327C4FE87
:1046B0009AA30100724405618280011122CE00108C
:1046C0002326A4FEAE872322C4FE2315F4FE8327EF
:1046D00044FE8DC38327C4FEDE2713970701418361
:1046E0008357A4FED98F1397070141838327C4FE04
:1046F000DAA725A08327C4FEDE271397070141838D
:104700008357A4FE93C7F7FFC207C183F98F13979E
:10471000070141838327C4FEDAA7010072440561C3
:104720008280011122CE00102326A4FEAE8723151D
:10473000F4FE8357A4FE93C7F7FF13970701418345
:104740008327C4FE9AAB01007244056182805D71CB
:1047500086C6A2C48008232EA4FA232CB4FA2324EC
:1047600004FE232604FE232204FE232004FE232E1F
:1047700004FC8327C4FB232EF4FC8327C4FB9E2B5D
:10478000C207C1832324F4FE032784FEB567FD1707
:10479000F98F2324F4FE832784FBFE233E8783279F
:1047A00084FED98F2324F4FE832784FE1397070108
:1047B00041838327C4FB9AAB8327C4FBDE27C20750
:1047C000C1832324F4FE032784FEBD679387379FAC
:1047D000F98F2324F4FE832784FBDA23832784FBC9
:1047E0009E27D98F139707014183832784FBBE2718
:1047F000D98FC207C1833E87832784FED98F2324A4
:10480000F4FE832784FE1397070141838327C4FBAB
:10481000DAA78327C4FBDE2BC207C1832324F4FE5F
:10482000032784FEC1679387F7CFF98F2324F4FE13
:10483000832784FBDE273E87832784FED98F2324AA
:10484000F4FE832784FE1397070141838327C4FB6B
:10485000DAAB930784FC3E85EFF04FD40327C4FD09
:10486000B7470140938707806317F700832744FD0C
:104870002326F4FE29A0832704FD2326F4FE032724
:10488000C4FEBA878607BA978E073E97832784FBB4
:104890009C438A07B357F7022322F4FE032744FE02
:1048A00093074006B357F70292072324F4FE8327A9
:1048B00084FE13D7470093074006B307F702032788
:1048C00044FEB307F7402320F4FE832704FE92073B
:1048D0001387270393074006B357F702BD8B0327BF
:1048E00084FED98F2324F4FE832784FE13970701C7
:1048F00041838327C4FB9AA70100B6402644616127
:104900008280011122CE00102326A4FE2324B4FEAF
:10491000832784FE85C38327C4FEDE271397070100
:1049200041838967D98F1397070141838327C4FE89
:10493000DAA705A08327C4FEDE271397070141836A
:10494000F977FD17F98F1397070141838327C4FE79
:10495000DAA70100724405618280011122CE0010A5
:104960002326A4FEAE872322C4FE2315F4FE83274C
:1049700044FE8DC38327C4FEDE2B139707014183BA
:104980008357A4FED98F1397070141838327C4FE61
:10499000DAAB25A08327C4FEDE2B139707014183E2
:1049A0008357A4FE93C7F7FFC207C183F98F1397FC
:1049B000070141838327C4FEDAAB0100724405611D
:1049C0008280011122CE00102326A4FEAE8723157B
:1049D000F4FE8357A4FE93F7F71F13970701418353
:1049E0008327C4FEDAA301007244056182807971D5
:1049F00022D60018232EA4FCAE87231DF4FC232608
:104A000004FE8327C4FD9E23139707014183835728
:104A1000A4FDF98FC207C18389C785472326F4FE09
:104A200019A0232604FE8327C4FE3E853254456127
:104A30008280011122CE00102326A4FEAE8723150A
:104A4000F4FE8357A4FE93C7F7FF13970701418332
:104A50008327C4FE9AA3010072440561828041113C
:104A600022C60008B707002003A78712B7177A00ED
:104A700093870720B357F70213F7F70F2386E182D6
:104A800083C7C1821397070141839307803EB30711
:104A9000F7021397070141832397E1820100324413
:104AA00041018280797122D60018232EA4FC37F7A9
:104AB00000E0544337F700E0F99A54C303C7C182BA
:104AC000BA860327C4FD3307D7022326E4FE37F74F
:104AD00000E08326C4FEB68701481CCB232A0701C9
:104AE000B7F700E09843B7F700E01367070198C3F2
:104AF000B7F700E09843B7F700E01367170298C3D1
:104B00000100B7F700E0DC4313F717008547E31A0D
:104B1000F7FEB7F700E09843B7F700E0799B98C33A
:104B20000100325445618280797122D60018232E0B
:104B3000A4FC37F700E0544337F700E0F99A54C378
:104B400003D7E182BA860327C4FD3307D7022326A1
:104B5000E4FE37F700E08326C4FEB68701481CCB8D
:104B6000232A0701B7F700E09843B7F700E013677F
:104B7000070198C3B7F700E09843B7F700E0136761
:104B8000170298C30100B7F700E0DC4313F71700E2
:104B90008547E31AF7FEB7F700E09843B7F700E060
:104BA000799B98C30100325445618280397106DED9
:104BB00022DC80002326A4FC854591671385D7005D
:104BC000EFF00FDB8545B707208013850740EFE046
:104BD0001FE9E1772312F4FE8D472324F4FEE14719
:104BE0002326F4FE930744FEBE85B71701401385C4
:104BF00007C0EFE09FC28327C4FC232AF4FC231CD8
:104C000004FC231D04FC231E04FC231004FEA14706
:104C1000231FF4FC930744FDBE85B747014013856D
:104C20000780EFF0DFB28545B74701401385078065
:104C3000EFF03FCD0100F250625421618280797122
:104C400006D622D40018232EA4FC232CB4FC232A3D
:104C5000C4FC232604FE232604FE81A00100930544
:104C60000004B7470140138507805133AA87E5DB6D
:104C7000832784FD13871700232CE4FC8387070018
:104C8000C207C183BE85B747014013850780153B26
:104C90008327C4FE85072326F4FE0327C4FE83274B
:104CA00044FDE34DF7FA832744FD3E85B25022547C
:104CB00045618280011122CE00102326A4FE03A7A5
:104CC00081808327C4FE3E97B71700209387C74291
:104CD000636DF70003A781808327C4FE3E97B787E3
:104CE00000209387078063F4E700FD5739A803A7E6
:104CF00081808327C4FE3E9723A4E18003A781809F
:104D00008327C4FEB307F040BA973E85724405611D
:104D10008280797106D622D40018232EA4FC832722
:104D2000C4FD2326F4FE25A8010093050004B7471F
:104D3000014013850780EFF09FCBAA87FDD783271B
:104D4000C4FE138717002326E4FE9C23C207C183F9
:104D5000BE85B747014013850780EFF09FC68327C4
:104D6000C4FE9C23F1F30100B250225445618280BD
:104D7000797122D60018AA87A30FF4FC8347F4FDAB
:104D8000BD8BA307F4FE0347F4FEA54763F9E700D4
:104D90008347F4FE93877703A307F4FE39A0834784
:104DA000F4FE93870703A307F4FE8347F4FE3E85D2
:104DB000325445618280B3C7A5008D8B3307C5008F
:104DC00081E78D4763EDC700AA87637EE5089421DC
:104DD00085078505A38FD7FEE3EBE7FE82809376F8
:104DE0003500AA8789CA942185078505A38FD7FE38
:104DF00093F63700C5BF9376C7FF138606FE63F0B0
:104E0000C70683A3050083A2450083AF850003AFD7
:104E1000C50083AE050103AE450103A3850183A848
:104E2000C5019385450223A0770003A8C5FF23A2EF
:104E3000570023A4F70123A6E70123A8D70123AA3B
:104E4000C70123AC670023AE17019387470223AE47
:104E500007FF75B790419107910523AEC7FEE3EBBD
:104E6000D7FEE3E6E7F6828039713EDA2ED232D4FD
:104E700036D63AD842DC46DE9387C18022CC8043C6
:104E800026CA06CEAA8409C41C4C99E32285ED29C2
:104E90000C4454102686228536C6EF007012F2406C
:104EA0006244D24421618280011126CA4AC806CEDA
:104EB00022CC4EC652C4AA842E8901C51C4D91E352
:104EC000E1219C4C804499E326857D2997170000B9
:104ED00093878739631BF402C0405E24A18BB1C75E
:104EE0001C48A1C7FD59294A1C4483450900FD17E8
:104EF000B1E91CC463DD07062286A9452685612029
:104F0000FD576308F502294535A0971700009387E0
:104F1000A7376314F4008044C9B79717000093873C
:104F2000A732E31CF4FAC0444DBFA2852685112A9E
:104F300055D97D55F2406244D2444249B249224A91
:104F4000056182801CC4050963D70700184C63CA39
:104F5000E700638845011C401387170018C08CA325
:104F600061B7228626850520E31035F9D9B71C40A4
:104F70001387170018C0294798A371B79387C1807A
:104F8000AA85884315B7011122CC26CA4AC806CE85
:104F90004EC6AA842E89328401C51C4D91E3ED26AC
:104FA000971700009387472C6317F406C0401C4CEA
:104FB0001CC45E24A18BC1C31C48B5CF1C4808404B
:104FC0009379F90F1379F90F1D8D5C486346F5004D
:104FD000A2852685692C25E51C440505FD171CC402
:104FE0001C401387170018C0238037015C48638872
:104FF000A7005E24858B81CBA9476316F900A285A3
:105000002685B5240DEDF24062444A85D2444249DA
:10501000B24905618280971700009387E7266314E1
:10502000F400804469B7971700009387E721E310E5
:10503000F4F8C044ADBFA2852685212041D17D5919
:10504000D9B741119387C18026C2844322C44AC084
:1050500006C62A892E8489C49C4C99E326852D2670
:105060009717000093874720631BF402C040031783
:10507000C40093170701C18393F68700ADEA93F646
:10508000070195EEA5472320F900136707045AA4EA
:105090007D55B240224492440249410182809717D3
:1050A00000009387671E6314F4008044C9B7971704
:1050B000000093876719E31CF4FAC0444DBF918B3D
:1050C0009DC34C5889C9930744046384F5004A85FD
:1050D0003123232A04025E242322040093F7B7FD20
:1050E0005EA41C481CC05E2493E787005EA41C4895
:1050F00099EB5E241307002093F707286385E700E8
:10510000A2854A85A1215E2413F717001DC35C48C0
:1051100023240400B307F0401CCC1C480145B5FB18
:105120008317C40013F707082DD793E707045EA47D
:1051300085B7898B014791E3584818C4F9BFDE252C
:10514000011122CC26CA06CE4AC84EC613F78700E4
:10515000AA842E8479EBD841634DE000B841634ABC
:10516000E0000145F2406244D2444249B24905613F
:10517000828058547DD703A904009396370123A059
:10518000040063DB060670485E24918B99C75C407F
:105190001D8E5C5899C33C401D8E5C540C5081465A
:1051A00026858297FD575A24631DF5009440F547E4
:1051B00063E8D706B70740208507B3D7D700858BAC
:1051C000A5C31C48232204001CC09317370163D8D1
:1051D0000700FD576314F5009C4091E368C84C58E4
:1051E00023A02401BDDD930744046384F5002685D4
:1051F000F526232A0402B5B70C50014685462685BC
:105200000297FD572A86E311F5F89C40B5DF7547F4
:105210006385E70059476393E70423A0240191B70E
:10522000136707045AA47D5535BF83A90501E38A96
:1052300009F203A905008D8B23A0350133093941FB
:10524000014791E3D84918C4E35D20F11C540C5088
:10525000CA864E86268582976347A0005E2493E720
:1052600007045EA4C9B7AA993309A940F1BF9C49B4
:10527000B9CF011122CC06CE2A8411C51C4D81E77D
:105280002EC61922B245971700009387E7FD639B4E
:10529000F5004C408397C50095C722856244F240D3
:1052A000056171BD97170000938707FE6394F500B1
:1052B0000C44CDB797170000938707F9E39CF5FCE2
:1052C0004C44C9BFF24062440145056182800145FA
:1052D0008280411122C406C62A844EA572A52320CD
:1052E0000500232205002324050023220506232888
:1052F0000500232A0500232C0500214681451305BE
:10530000C505EFA0FFEB97170000938707B25CD0AD
:1053100097170000938727B41CD497170000938732
:1053200007B85CD497170000938767BA00D01CD8E1
:10533000B24022444101828097050000938565F3C5
:10534000A9A2411126C2130680069384F5FFB384F7
:10535000C4024AC02E8922C406C6938544071D266E
:105360002A8401CD2320050023222501310508C40C
:10537000138684068145EFA0BFE42285B240224413
:1053800092440249410182801C4DADE3411106C6A1
:1053900022C497070000938767FA1CD59387418141
:1053A0009C432324050423260504232805046314B1
:1053B000F50085471CCD2A841D2848C02285052874
:1053C00008C422852D2048C4484001469145113724
:1053D00008440546A545F53D48440946C945D53D1F
:1053E00085471CCCB2402244410182808280411119
:1053F0009387418126C284434AC006C69C4C22C47E
:105400002A8999E326854937938484048044DC40C3
:10541000FD1763D607009C40B9CF8440C5BF031772
:10542000C40039E7C177850723220406232004003E
:1054300023220400232404005CC423280400232A1C
:105440000400232C0400214681451305C405EFA068
:105450003FD7232A0402232C0402232404042326F6
:1054600004042285B24022449244024941018280D0
:105470001304840671BF91454A85E13588C051FD0A
:10548000B1472320F9000144E9BF797122D44AD001
:1054900052CC56CA5AC85EC606D626D24ECE2A8AE4
:1054A000AE8A130485040149054BFD5B09ECB2503B
:1054B00022544A8592540259F249624AD24A424BD6
:1054C000B24B45618280044483294400FD1963D4B2
:1054D00009000040E1BFDE24637BFB008397E4000A
:1054E00063877701A6855285829A3369A9009384E0
:1054F0008406E9BF1971A6DAAE848395E500A2DCC3
:1055000086DE328463DB0500DE2423A0060093F7E9
:10551000070885E7930700401DA0300836C6EF0056
:105520009021B246E34205FE7247BD67F98F797755
:10553000BA9793B717009CC2F1BF930700041CC031
:10554000F6506654D654014509618280DE2501116A
:1055500022CC06CE26CA4AC8898B2E8489CF9307CF
:1055600074041CC01CC885475CC8F2406244D24425
:1055700042490561828074003000AA84A53FA2459B
:105580002A892685012219E98317C40013F7072009
:1055900069FFF19B93E727005EA4D1B7970700004E
:1055A0009387C7D99CD45E2408C008C893E707082E
:1055B0005EA4A2475CC8B24781CF8315E40026856C
:1055C000EF00901A11C55E24F19B93E717005EA4CB
:1055D0005E243369F9002316240141BFDDC183A78E
:1055E000C5FF411122C406C626C21384C5FF63D37A
:1055F00007003E94AA84EF00F01E938701839C432A
:1056000081EF2322040023A881822244B240268510
:10561000924441016F00301D637EF4001440330753
:10562000D4006396E7009843DC43369718C05CC00B
:10563000D9BFBA87D84319C3E37DE4FE94433386C8
:10564000D700631F86001040B29694C33386D700FC
:10565000E31DC7FA10435843B29694C3D8C375B735
:105660006375C400B1479CC04DB71040B306C40079
:105670006316D70014435843B29614C058C0C0C331
:1056800069B78280011126CA93843500F19806CE4D
:1056900022CC4AC84EC6A104B14763F3F404B14416
:1056A00063E2B4042A89EF00F013938701839843DF
:1056B0003A8439E0938741839C4391E781454A8549
:1056C000152F23AAA182A6854A852D27FD59631986
:1056D0003507B1472320F9004A85EF00D01029A0F3
:1056E000E3D004FCB1471CC10145F2406244D244FE
:1056F0004249B249056182801C40858F63CF070211
:10570000AD4663F6F6001CC03E9404C031A05C4078
:105710006313870223A8F1824A85EF00D00C13059A
:10572000B4009307440061993307F5405DDF3A9474
:10573000898F1CC05DBF5CC3C5B72287404095BF41
:10574000130435007198E30285FCB305A4404A8533
:105750005525E31C35FBB5BF1C46FD171CC663DA97
:105760000700184E63C5E700A9476394F5006FF082
:105770009F811C422E851387170018C28CA382803C
:10578000011122CC26CA4AC84EC652C406CE2A8966
:10579000AE893284B304D6007D5A63149400014567
:1057A00001A80C204E864A85453F0504E31745FFB6
:1057B000F2406244D2444249B249224A05618280A1
:1057C000357122CD26CB4AC94EC706CF52C556C326
:1057D0005AC1DEDEE2DCE6DAAA89AE84328936849A
:1057E00009C51C4D99E3EFF03FBA97170000938766
:1057F000A7A76397F40C83A44900DE24A18BFDC303
:105800009C48EDC393070002A304F1029307000331
:1058100002D22305F10222C6930B5002971A000010
:10582000938A8AA8054C294B4A841C2099C3639EFD
:10583000770DB30C2441638D0C00E6864A86A6855D
:105840004E853D3FFD57630FF51C9256E69636D2C6
:105850001C206389071CFD571309140002C802CEDF
:105860003ECA02CCA309010482D48345090015462F
:105870005685A92F13041900C24751E913F70701F0
:1058800009C713070002A309E10413F7870009C73A
:105890001307B002A309E104834609001307A0021D
:1058A000638FE606F2474A84814625461820930511
:1058B0001400130707FD6377E60AB5CA3ECE85A834
:1058C000971700009387479C6395F40083A4890091
:1058D0002DB79717000093872797E390F4F283A4DE
:1058E000C90021BFA6854E85EFF0AFF501DD7D55DE
:1058F000FA406A44DA444A49BA492A4A9A4A0A4B5F
:10590000F65B665CD65C0D618280050439BF3305A9
:1059100055413315AC00C98F3EC82289B9B732470B
:1059200093064700184336C6634707023ACE18204D
:105930009307E002631DF70418309307A002631B6E
:10594000F702B2470904138747009C433AC663C174
:1059500007023ECA2DA83307E04093E727003ACE5E
:105960003EC8F1B7B387670385462E84BA973DBF1B
:10597000FD57C5B7050402CA814681472546182050
:1059800093051400130707FD6374E606F9F20C2073
:105990000D46171500001305A5910D2D11CD971774
:1059A00000009387E7901D8D93070004B397A7002D
:1059B000424505045D8D2AC80C20194617150000C4
:1059C0001305458F130914002304B102012535C1C5
:1059D00097A7FFFF9387076395E74247B24713777F
:1059E000071009CF91073EC69257D2973ED22DBDE0
:1059F000B387670385462E84BA9751B79D07E19B0D
:105A0000A107D5B77800970600009386A6D726860B
:105A10000C084E8597000000E7000000FD572A8A19
:105A2000E314F5FCDE2493F70704E39207EC125528
:105A3000C1B57800970600009386C6D426860C0868
:105A40004E85012AE1BF797156CA9C49BA8A9845A8
:105A500022D426D24ECE52CC06D64AD05AC85EC6E2
:105A6000AA892E84B284368A63D3E700BA879CC0A1
:105A70000347340419C385079CC01C4093F70702F1
:105A800081C79C4089079CC00329040013796900E1
:105A9000631A0900130B9401FD5B5C449840998FD5
:105AA000634CF9041C408346340493F70702B33671
:105AB000D000A5EB13063404D2854E85829AFD579B
:105AC0006303F5041C4011469840998B544481446B
:105AD0006397C700B384E64063D3040081441C4449
